{
  "contractName": "UserRegistration",
  "abi": [
    {
      "anonymous": false,
      "inputs": [
        {
          "indexed": false,
          "internalType": "address",
          "name": "user",
          "type": "address"
        }
      ],
      "name": "UserRegistered",
      "type": "event"
    },
    {
      "inputs": [
        {
          "internalType": "uint256",
          "name": "",
          "type": "uint256"
        }
      ],
      "name": "userAddresses",
      "outputs": [
        {
          "internalType": "address",
          "name": "",
          "type": "address"
        }
      ],
      "stateMutability": "view",
      "type": "function",
      "constant": true
    },
    {
      "inputs": [
        {
          "internalType": "address",
          "name": "",
          "type": "address"
        }
      ],
      "name": "users",
      "outputs": [
        {
          "internalType": "string",
          "name": "name",
          "type": "string"
        },
        {
          "internalType": "string",
          "name": "email",
          "type": "string"
        },
        {
          "internalType": "string",
          "name": "password",
          "type": "string"
        },
        {
          "internalType": "bool",
          "name": "registered",
          "type": "bool"
        }
      ],
      "stateMutability": "view",
      "type": "function",
      "constant": true
    },
    {
      "inputs": [
        {
          "internalType": "string",
          "name": "name",
          "type": "string"
        },
        {
          "internalType": "string",
          "name": "email",
          "type": "string"
        },
        {
          "internalType": "string",
          "name": "password",
          "type": "string"
        }
      ],
      "name": "registerUser",
      "outputs": [],
      "stateMutability": "nonpayable",
      "type": "function"
    },
    {
      "inputs": [],
      "name": "getUserCount",
      "outputs": [
        {
          "internalType": "uint256",
          "name": "",
          "type": "uint256"
        }
      ],
      "stateMutability": "view",
      "type": "function",
      "constant": true
    },
    {
      "inputs": [
        {
          "internalType": "address",
          "name": "user",
          "type": "address"
        }
      ],
      "name": "getUserInfo",
      "outputs": [
        {
          "internalType": "string",
          "name": "",
          "type": "string"
        },
        {
          "internalType": "string",
          "name": "",
          "type": "string"
        },
        {
          "internalType": "string",
          "name": "",
          "type": "string"
        }
      ],
      "stateMutability": "view",
      "type": "function",
      "constant": true
    }
  ],
  "bytecode": "0x608060405234801561001057600080fd5b50610ec8806100206000396000f3fe608060405234801561001057600080fd5b50600436106100575760003560e01c8063502c9bd51461005c5780636386c1c71461008c578063a87430ba146100be578063b5cb15f7146100f1578063d637dcfa1461010f575b600080fd5b61007660048036038101906100719190610917565b61012b565b6040516100839190610985565b60405180910390f35b6100a660048036038101906100a191906109cc565b61016a565b6040516100b593929190610a92565b60405180910390f35b6100d860048036038101906100d391906109cc565b610438565b6040516100e89493929190610af9565b60405180910390f35b6100f961060d565b6040516101069190610b62565b60405180910390f35b61012960048036038101906101249190610cb2565b61061a565b005b6001818154811061013b57600080fd5b906000526020600020016000915054906101000a900473ffffffffffffffffffffffffffffffffffffffff1681565b60608060606000808573ffffffffffffffffffffffffffffffffffffffff1673ffffffffffffffffffffffffffffffffffffffff16815260200190815260200160002060030160009054906101000a900460ff166101fd576040517f08c379a00000000000000000000000000000000000000000000000000000000081526004016101f490610da5565b60405180910390fd5b60008060008673ffffffffffffffffffffffffffffffffffffffff1673ffffffffffffffffffffffffffffffffffffffff16815260200190815260200160002060405180608001604052908160008201805461025890610df4565b80601f016020809104026020016040519081016040528092919081815260200182805461028490610df4565b80156102d15780601f106102a6576101008083540402835291602001916102d1565b820191906000526020600020905b8154815290600101906020018083116102b457829003601f168201915b505050505081526020016001820180546102ea90610df4565b80601f016020809104026020016040519081016040528092919081815260200182805461031690610df4565b80156103635780601f1061033857610100808354040283529160200191610363565b820191906000526020600020905b81548152906001019060200180831161034657829003601f168201915b5050505050815260200160028201805461037c90610df4565b80601f01602080910402602001604051908101604052809291908181526020018280546103a890610df4565b80156103f55780601f106103ca576101008083540402835291602001916103f5565b820191906000526020600020905b8154815290600101906020018083116103d857829003601f168201915b505050505081526020016003820160009054906101000a900460ff1615151515815250509050806000015181602001518260400151935093509350509193909250565b600060205280600052604060002060009150905080600001805461045b90610df4565b80601f016020809104026020016040519081016040528092919081815260200182805461048790610df4565b80156104d45780601f106104a9576101008083540402835291602001916104d4565b820191906000526020600020905b8154815290600101906020018083116104b757829003601f168201915b5050505050908060010180546104e990610df4565b80601f016020809104026020016040519081016040528092919081815260200182805461051590610df4565b80156105625780601f1061053757610100808354040283529160200191610562565b820191906000526020600020905b81548152906001019060200180831161054557829003601f168201915b50505050509080600201805461057790610df4565b80601f01602080910402602001604051908101604052809291908181526020018280546105a390610df4565b80156105f05780601f106105c5576101008083540402835291602001916105f0565b820191906000526020600020905b8154815290600101906020018083116105d357829003601f168201915b5050505050908060030160009054906101000a900460ff16905084565b6000600180549050905090565b6000803373ffffffffffffffffffffffffffffffffffffffff1673ffffffffffffffffffffffffffffffffffffffff16815260200190815260200160002060030160009054906101000a900460ff16156106a9576040517f08c379a00000000000000000000000000000000000000000000000000000000081526004016106a090610e72565b60405180910390fd5b60006040518060800160405280858152602001848152602001838152602001600115158152509050806000803373ffffffffffffffffffffffffffffffffffffffff1673ffffffffffffffffffffffffffffffffffffffff168152602001908152602001600020600082015181600001908051906020019061072c92919061082a565b50602082015181600101908051906020019061074992919061082a565b50604082015181600201908051906020019061076692919061082a565b5060608201518160030160006101000a81548160ff0219169083151502179055509050506001339080600181540180825580915050600190039060005260206000200160009091909190916101000a81548173ffffffffffffffffffffffffffffffffffffffff021916908373ffffffffffffffffffffffffffffffffffffffff1602179055507f54db7a5cb4735e1aac1f53db512d3390390bb6637bd30ad4bf9fc98667d9b9b93360405161081c9190610985565b60405180910390a150505050565b82805461083690610df4565b90600052602060002090601f016020900481019282610858576000855561089f565b82601f1061087157805160ff191683800117855561089f565b8280016001018555821561089f579182015b8281111561089e578251825591602001919060010190610883565b5b5090506108ac91906108b0565b5090565b5b808211156108c95760008160009055506001016108b1565b5090565b6000604051905090565b600080fd5b600080fd5b6000819050919050565b6108f4816108e1565b81146108ff57600080fd5b50565b600081359050610911816108eb565b92915050565b60006020828403121561092d5761092c6108d7565b5b600061093b84828501610902565b91505092915050565b600073ffffffffffffffffffffffffffffffffffffffff82169050919050565b600061096f82610944565b9050919050565b61097f81610964565b82525050565b600060208201905061099a6000830184610976565b92915050565b6109a981610964565b81146109b457600080fd5b50565b6000813590506109c6816109a0565b92915050565b6000602082840312156109e2576109e16108d7565b5b60006109f0848285016109b7565b91505092915050565b600081519050919050565b600082825260208201905092915050565b60005b83811015610a33578082015181840152602081019050610a18565b83811115610a42576000848401525b50505050565b6000601f19601f8301169050919050565b6000610a64826109f9565b610a6e8185610a04565b9350610a7e818560208601610a15565b610a8781610a48565b840191505092915050565b60006060820190508181036000830152610aac8186610a59565b90508181036020830152610ac08185610a59565b90508181036040830152610ad48184610a59565b9050949350505050565b60008115159050919050565b610af381610ade565b82525050565b60006080820190508181036000830152610b138187610a59565b90508181036020830152610b278186610a59565b90508181036040830152610b3b8185610a59565b9050610b4a6060830184610aea565b95945050505050565b610b5c816108e1565b82525050565b6000602082019050610b776000830184610b53565b92915050565b600080fd5b600080fd5b7f4e487b7100000000000000000000000000000000000000000000000000000000600052604160045260246000fd5b610bbf82610a48565b810181811067ffffffffffffffff82111715610bde57610bdd610b87565b5b80604052505050565b6000610bf16108cd565b9050610bfd8282610bb6565b919050565b600067ffffffffffffffff821115610c1d57610c1c610b87565b5b610c2682610a48565b9050602081019050919050565b82818337600083830152505050565b6000610c55610c5084610c02565b610be7565b905082815260208101848484011115610c7157610c70610b82565b5b610c7c848285610c33565b509392505050565b600082601f830112610c9957610c98610b7d565b5b8135610ca9848260208601610c42565b91505092915050565b600080600060608486031215610ccb57610cca6108d7565b5b600084013567ffffffffffffffff811115610ce957610ce86108dc565b5b610cf586828701610c84565b935050602084013567ffffffffffffffff811115610d1657610d156108dc565b5b610d2286828701610c84565b925050604084013567ffffffffffffffff811115610d4357610d426108dc565b5b610d4f86828701610c84565b9150509250925092565b7f55736572206e6f74207265676973746572656400000000000000000000000000600082015250565b6000610d8f601383610a04565b9150610d9a82610d59565b602082019050919050565b60006020820190508181036000830152610dbe81610d82565b9050919050565b7f4e487b7100000000000000000000000000000000000000000000000000000000600052602260045260246000fd5b60006002820490506001821680610e0c57607f821691505b60208210811415610e2057610e1f610dc5565b5b50919050565b7f5573657220616c72656164792072656769737465726564000000000000000000600082015250565b6000610e5c601783610a04565b9150610e6782610e26565b602082019050919050565b60006020820190508181036000830152610e8b81610e4f565b905091905056fea2646970667358221220834f6588d75714c645480ab33f185c73dd1a25523e8694f96f0f6865070ea5cf64736f6c634300080b0033",
  "immutableReferences": {},
  "source": "// SPDX-License-Identifier: MIT\r\npragma solidity ^0.8.11;\r\n\r\ncontract UserRegistration {\r\n    struct User {\r\n        string name;\r\n        string email;\r\n        string password;\r\n        bool registered;\r\n    }\r\n\r\n    mapping(address => User) public users;\r\n    address[] public userAddresses;\r\n\r\n    event UserRegistered(address user);\r\n\r\n    function registerUser(\r\n        string memory name,\r\n        string memory email,\r\n        string memory password\r\n    ) external {\r\n        require(!users[msg.sender].registered, \"User already registered\");\r\n\r\n        User memory newUser = User(name, email, password, true);\r\n        users[msg.sender] = newUser;\r\n        userAddresses.push(msg.sender);\r\n\r\n        emit UserRegistered(msg.sender);\r\n    }\r\n\r\n    function getUserCount() external view returns (uint256) {\r\n        return userAddresses.length;\r\n    }\r\n\r\n    function getUserInfo(\r\n        address user\r\n    ) external view returns (string memory, string memory, string memory) {\r\n        require(users[user].registered, \"User not registered\");\r\n\r\n        User memory userInfo = users[user];\r\n        return (userInfo.name, userInfo.email, userInfo.password);\r\n    }\r\n}\r\n",
  "sourcePath": "E:\\Projects\\Blockchain Project\\smart-contract\\vending-machine-dapp\\smart-contract\\contracts\\UserRegistration.sol",
  "compiler": {
    "name": "solc",
    "version": "0.8.11+commit.d7f03943.Emscripten.clang"
  },
  "schemaVersion": "3.4.13",
  "updatedAt": "2023-06-22T12:47:05.100Z",
  "networkType": "ethereum",
  "devdoc": {
    "kind": "dev",
    "methods": {},
    "version": 1
  },
  "userdoc": {
    "kind": "user",
    "methods": {},
    "version": 1
  }
}